{
  "_format": "hh-sol-artifact-1",
  "contractName": "Main",
  "sourceName": "contracts/Main.sol",
  "abi": [
    {
      "inputs": [
        {
          "internalType": "address",
          "name": "_nftAddress",
          "type": "address"
        },
        {
          "internalType": "address payable",
          "name": "_seller",
          "type": "address"
        },
        {
          "internalType": "address",
          "name": "_inspector",
          "type": "address"
        }
      ],
      "stateMutability": "nonpayable",
      "type": "constructor"
    },
    {
      "inputs": [
        {
          "internalType": "uint256",
          "name": "",
          "type": "uint256"
        },
        {
          "internalType": "address",
          "name": "",
          "type": "address"
        }
      ],
      "name": "approval",
      "outputs": [
        {
          "internalType": "bool",
          "name": "",
          "type": "bool"
        }
      ],
      "stateMutability": "view",
      "type": "function"
    },
    {
      "inputs": [
        {
          "internalType": "uint256",
          "name": "_nftID",
          "type": "uint256"
        }
      ],
      "name": "approveSale",
      "outputs": [],
      "stateMutability": "nonpayable",
      "type": "function"
    },
    {
      "inputs": [
        {
          "internalType": "uint256",
          "name": "",
          "type": "uint256"
        }
      ],
      "name": "buyer",
      "outputs": [
        {
          "internalType": "address",
          "name": "",
          "type": "address"
        }
      ],
      "stateMutability": "view",
      "type": "function"
    },
    {
      "inputs": [
        {
          "internalType": "uint256",
          "name": "_nftID",
          "type": "uint256"
        }
      ],
      "name": "cancelSale",
      "outputs": [],
      "stateMutability": "nonpayable",
      "type": "function"
    },
    {
      "inputs": [
        {
          "internalType": "uint256",
          "name": "",
          "type": "uint256"
        }
      ],
      "name": "depositAmount",
      "outputs": [
        {
          "internalType": "uint256",
          "name": "",
          "type": "uint256"
        }
      ],
      "stateMutability": "view",
      "type": "function"
    },
    {
      "inputs": [
        {
          "internalType": "uint256",
          "name": "_nftID",
          "type": "uint256"
        }
      ],
      "name": "depositEarnest",
      "outputs": [],
      "stateMutability": "payable",
      "type": "function"
    },
    {
      "inputs": [
        {
          "internalType": "uint256",
          "name": "_nftID",
          "type": "uint256"
        }
      ],
      "name": "finalizeSale",
      "outputs": [],
      "stateMutability": "nonpayable",
      "type": "function"
    },
    {
      "inputs": [],
      "name": "getBalance",
      "outputs": [
        {
          "internalType": "uint256",
          "name": "",
          "type": "uint256"
        }
      ],
      "stateMutability": "view",
      "type": "function"
    },
    {
      "inputs": [
        {
          "internalType": "uint256",
          "name": "",
          "type": "uint256"
        }
      ],
      "name": "inspectionPassed",
      "outputs": [
        {
          "internalType": "bool",
          "name": "",
          "type": "bool"
        }
      ],
      "stateMutability": "view",
      "type": "function"
    },
    {
      "inputs": [],
      "name": "inspector",
      "outputs": [
        {
          "internalType": "address",
          "name": "",
          "type": "address"
        }
      ],
      "stateMutability": "view",
      "type": "function"
    },
    {
      "inputs": [
        {
          "internalType": "uint256",
          "name": "",
          "type": "uint256"
        }
      ],
      "name": "isListed",
      "outputs": [
        {
          "internalType": "bool",
          "name": "",
          "type": "bool"
        }
      ],
      "stateMutability": "view",
      "type": "function"
    },
    {
      "inputs": [
        {
          "internalType": "uint256",
          "name": "_nftID",
          "type": "uint256"
        },
        {
          "internalType": "address",
          "name": "_buyer",
          "type": "address"
        },
        {
          "internalType": "uint256",
          "name": "_purchasePrice",
          "type": "uint256"
        },
        {
          "internalType": "uint256",
          "name": "_depositAmount",
          "type": "uint256"
        }
      ],
      "name": "list",
      "outputs": [],
      "stateMutability": "payable",
      "type": "function"
    },
    {
      "inputs": [],
      "name": "nftAddress",
      "outputs": [
        {
          "internalType": "address",
          "name": "",
          "type": "address"
        }
      ],
      "stateMutability": "view",
      "type": "function"
    },
    {
      "inputs": [
        {
          "internalType": "uint256",
          "name": "",
          "type": "uint256"
        }
      ],
      "name": "purchasePrice",
      "outputs": [
        {
          "internalType": "uint256",
          "name": "",
          "type": "uint256"
        }
      ],
      "stateMutability": "view",
      "type": "function"
    },
    {
      "inputs": [],
      "name": "seller",
      "outputs": [
        {
          "internalType": "address payable",
          "name": "",
          "type": "address"
        }
      ],
      "stateMutability": "view",
      "type": "function"
    },
    {
      "inputs": [
        {
          "internalType": "uint256",
          "name": "_nftID",
          "type": "uint256"
        },
        {
          "internalType": "bool",
          "name": "_passed",
          "type": "bool"
        }
      ],
      "name": "updateInspectionStatus",
      "outputs": [],
      "stateMutability": "nonpayable",
      "type": "function"
    },
    {
      "stateMutability": "payable",
      "type": "receive"
    }
  ],
  "bytecode": "0x60806040523480156200001157600080fd5b5060405162001426380380620014268339818101604052810190620000379190620001b1565b826000806101000a81548173ffffffffffffffffffffffffffffffffffffffff021916908373ffffffffffffffffffffffffffffffffffffffff16021790555081600160006101000a81548173ffffffffffffffffffffffffffffffffffffffff021916908373ffffffffffffffffffffffffffffffffffffffff16021790555080600260006101000a81548173ffffffffffffffffffffffffffffffffffffffff021916908373ffffffffffffffffffffffffffffffffffffffff1602179055505050506200020d565b600080fd5b600073ffffffffffffffffffffffffffffffffffffffff82169050919050565b6000620001348262000107565b9050919050565b620001468162000127565b81146200015257600080fd5b50565b60008151905062000166816200013b565b92915050565b6000620001798262000107565b9050919050565b6200018b816200016c565b81146200019757600080fd5b50565b600081519050620001ab8162000180565b92915050565b600080600060608486031215620001cd57620001cc62000102565b5b6000620001dd8682870162000155565b9350506020620001f0868287016200019a565b9250506040620002038682870162000155565b9150509250925092565b611209806200021d6000396000f3fe6080604052600436106100f75760003560e01c80639d0e5fd61161008a578063c9f0ec7e11610059578063c9f0ec7e14610359578063e740f77014610375578063ed2cee9e14610391578063fcce4883146103bc576100fe565b80639d0e5fd6146102a1578063aa929380146102ca578063b848de35146102f3578063bd94b00514610330576100fe565b80635bf8633a116100c65780635bf8633a146101bf5780635eed5fff146101ea57806377fbc4ae1461022757806387f8ab2614610264576100fe565b806308551a531461010357806312065fe01461012e57806314a72feb146101595780634dd4acaf14610182576100fe565b366100fe57005b600080fd5b34801561010f57600080fd5b506101186103f9565b6040516101259190610d57565b60405180910390f35b34801561013a57600080fd5b5061014361041f565b6040516101509190610d8b565b60405180910390f35b34801561016557600080fd5b50610180600480360381019061017b9190610dd7565b610427565b005b34801561018e57600080fd5b506101a960048036038101906101a49190610dd7565b610493565b6040516101b69190610e25565b60405180910390f35b3480156101cb57600080fd5b506101d46104c6565b6040516101e19190610e25565b60405180910390f35b3480156101f657600080fd5b50610211600480360381019061020c9190610dd7565b6104ea565b60405161021e9190610e5b565b60405180910390f35b34801561023357600080fd5b5061024e60048036038101906102499190610dd7565b61050a565b60405161025b9190610d8b565b60405180910390f35b34801561027057600080fd5b5061028b60048036038101906102869190610dd7565b610522565b6040516102989190610d8b565b60405180910390f35b3480156102ad57600080fd5b506102c860048036038101906102c39190610ea2565b61053a565b005b3480156102d657600080fd5b506102f160048036038101906102ec9190610dd7565b6105f9565b005b3480156102ff57600080fd5b5061031a60048036038101906103159190610f0e565b6108f0565b6040516103279190610e5b565b60405180910390f35b34801561033c57600080fd5b5061035760048036038101906103529190610dd7565b61091f565b005b610373600480360381019061036e9190610f4e565b610a37565b005b61038f600480360381019061038a9190610dd7565b610c0a565b005b34801561039d57600080fd5b506103a6610cd0565b6040516103b39190610e25565b60405180910390f35b3480156103c857600080fd5b506103e360048036038101906103de9190610dd7565b610cf6565b6040516103f09190610e5b565b60405180910390f35b600160009054906101000a900473ffffffffffffffffffffffffffffffffffffffff1681565b600047905090565b60016008600083815260200190815260200160002060003373ffffffffffffffffffffffffffffffffffffffff1673ffffffffffffffffffffffffffffffffffffffff16815260200190815260200160002060006101000a81548160ff02191690831515021790555050565b60066020528060005260406000206000915054906101000a900473ffffffffffffffffffffffffffffffffffffffff1681565b60008054906101000a900473ffffffffffffffffffffffffffffffffffffffff1681565b60076020528060005260406000206000915054906101000a900460ff1681565b60046020528060005260406000206000915090505481565b60056020528060005260406000206000915090505481565b600260009054906101000a900473ffffffffffffffffffffffffffffffffffffffff1673ffffffffffffffffffffffffffffffffffffffff163373ffffffffffffffffffffffffffffffffffffffff16146105ca576040517f08c379a00000000000000000000000000000000000000000000000000000000081526004016105c190611038565b60405180910390fd5b806007600084815260200190815260200160002060006101000a81548160ff0219169083151502179055505050565b6007600082815260200190815260200160002060009054906101000a900460ff1661062357600080fd5b6008600082815260200190815260200160002060006006600084815260200190815260200160002060009054906101000a900473ffffffffffffffffffffffffffffffffffffffff1673ffffffffffffffffffffffffffffffffffffffff1673ffffffffffffffffffffffffffffffffffffffff16815260200190815260200160002060009054906101000a900460ff166106bd57600080fd5b600860008281526020019081526020016000206000600160009054906101000a900473ffffffffffffffffffffffffffffffffffffffff1673ffffffffffffffffffffffffffffffffffffffff1673ffffffffffffffffffffffffffffffffffffffff16815260200190815260200160002060009054906101000a900460ff1661074657600080fd5b600460008281526020019081526020016000205447101561076657600080fd5b6000600160009054906101000a900473ffffffffffffffffffffffffffffffffffffffff1673ffffffffffffffffffffffffffffffffffffffff16476040516107ae90611089565b60006040518083038185875af1925050503d80600081146107eb576040519150601f19603f3d011682016040523d82523d6000602084013e6107f0565b606091505b50509050806107fe57600080fd5b60008054906101000a900473ffffffffffffffffffffffffffffffffffffffff1673ffffffffffffffffffffffffffffffffffffffff166323b872dd306006600086815260200190815260200160002060009054906101000a900473ffffffffffffffffffffffffffffffffffffffff16856040518463ffffffff1660e01b815260040161088e9392919061109e565b600060405180830381600087803b1580156108a857600080fd5b505af11580156108bc573d6000803e3d6000fd5b5050505060006003600084815260200190815260200160002060006101000a81548160ff0219169083151502179055505050565b60086020528160005260406000206020528060005260406000206000915091509054906101000a900460ff1681565b600015156007600083815260200190815260200160002060009054906101000a900460ff161515036109ca576006600082815260200190815260200160002060009054906101000a900473ffffffffffffffffffffffffffffffffffffffff1673ffffffffffffffffffffffffffffffffffffffff166108fc479081150290604051600060405180830381858888f193505050501580156109c4573d6000803e3d6000fd5b50610a34565b600160009054906101000a900473ffffffffffffffffffffffffffffffffffffffff1673ffffffffffffffffffffffffffffffffffffffff166108fc479081150290604051600060405180830381858888f19350505050158015610a32573d6000803e3d6000fd5b505b50565b600160009054906101000a900473ffffffffffffffffffffffffffffffffffffffff1673ffffffffffffffffffffffffffffffffffffffff163373ffffffffffffffffffffffffffffffffffffffff1614610ac7576040517f08c379a0000000000000000000000000000000000000000000000000000000008152600401610abe90611147565b60405180910390fd5b60008054906101000a900473ffffffffffffffffffffffffffffffffffffffff1673ffffffffffffffffffffffffffffffffffffffff166323b872dd3330876040518463ffffffff1660e01b8152600401610b249392919061109e565b600060405180830381600087803b158015610b3e57600080fd5b505af1158015610b52573d6000803e3d6000fd5b5050505060016003600086815260200190815260200160002060006101000a81548160ff021916908315150217905550816004600086815260200190815260200160002081905550806005600086815260200190815260200160002081905550826006600086815260200190815260200160002060006101000a81548173ffffffffffffffffffffffffffffffffffffffff021916908373ffffffffffffffffffffffffffffffffffffffff16021790555050505050565b806006600082815260200190815260200160002060009054906101000a900473ffffffffffffffffffffffffffffffffffffffff1673ffffffffffffffffffffffffffffffffffffffff163373ffffffffffffffffffffffffffffffffffffffff1614610cac576040517f08c379a0000000000000000000000000000000000000000000000000000000008152600401610ca3906111b3565b60405180910390fd5b6005600083815260200190815260200160002054341015610ccc57600080fd5b5050565b600260009054906101000a900473ffffffffffffffffffffffffffffffffffffffff1681565b60036020528060005260406000206000915054906101000a900460ff1681565b600073ffffffffffffffffffffffffffffffffffffffff82169050919050565b6000610d4182610d16565b9050919050565b610d5181610d36565b82525050565b6000602082019050610d6c6000830184610d48565b92915050565b6000819050919050565b610d8581610d72565b82525050565b6000602082019050610da06000830184610d7c565b92915050565b600080fd5b610db481610d72565b8114610dbf57600080fd5b50565b600081359050610dd181610dab565b92915050565b600060208284031215610ded57610dec610da6565b5b6000610dfb84828501610dc2565b91505092915050565b6000610e0f82610d16565b9050919050565b610e1f81610e04565b82525050565b6000602082019050610e3a6000830184610e16565b92915050565b60008115159050919050565b610e5581610e40565b82525050565b6000602082019050610e706000830184610e4c565b92915050565b610e7f81610e40565b8114610e8a57600080fd5b50565b600081359050610e9c81610e76565b92915050565b60008060408385031215610eb957610eb8610da6565b5b6000610ec785828601610dc2565b9250506020610ed885828601610e8d565b9150509250929050565b610eeb81610e04565b8114610ef657600080fd5b50565b600081359050610f0881610ee2565b92915050565b60008060408385031215610f2557610f24610da6565b5b6000610f3385828601610dc2565b9250506020610f4485828601610ef9565b9150509250929050565b60008060008060808587031215610f6857610f67610da6565b5b6000610f7687828801610dc2565b9450506020610f8787828801610ef9565b9350506040610f9887828801610dc2565b9250506060610fa987828801610dc2565b91505092959194509250565b600082825260208201905092915050565b7f4f6e6c7920696e73706563746f722063616e2063616c6c2074686973206d657460008201527f686f642100000000000000000000000000000000000000000000000000000000602082015250565b6000611022602483610fb5565b915061102d82610fc6565b604082019050919050565b6000602082019050818103600083015261105181611015565b9050919050565b600081905092915050565b50565b6000611073600083611058565b915061107e82611063565b600082019050919050565b600061109482611066565b9150819050919050565b60006060820190506110b36000830186610e16565b6110c06020830185610e16565b6110cd6040830184610d7c565b949350505050565b7f4f6e6c792073656c6c65722063616e2063616c6c2074686973206d6574686f6460008201527f2100000000000000000000000000000000000000000000000000000000000000602082015250565b6000611131602183610fb5565b915061113c826110d5565b604082019050919050565b6000602082019050818103600083015261116081611124565b9050919050565b7f4f6e6c792062757965722063616e2063616c6c2074686973206d6574686f6400600082015250565b600061119d601f83610fb5565b91506111a882611167565b602082019050919050565b600060208201905081810360008301526111cc81611190565b905091905056fea2646970667358221220a6ab123440d2390ddc6bab654e6b8703fb4f74e32b477af09570f714d5f4e60064736f6c63430008110033",
  "linkReferences": {},
  "deployedLinkReferences": {}
}