{
  "_format": "hh-sol-artifact-1",
  "contractName": "Mint",
  "sourceName": "contracts/Mint.sol",
  "abi": [
    {
      "inputs": [],
      "stateMutability": "nonpayable",
      "type": "constructor"
    },
    {
      "anonymous": false,
      "inputs": [
        {
          "indexed": true,
          "internalType": "address",
          "name": "owner",
          "type": "address"
        },
        {
          "indexed": true,
          "internalType": "address",
          "name": "approved",
          "type": "address"
        },
        {
          "indexed": true,
          "internalType": "uint256",
          "name": "tokenId",
          "type": "uint256"
        }
      ],
      "name": "Approval",
      "type": "event"
    },
    {
      "anonymous": false,
      "inputs": [
        {
          "indexed": true,
          "internalType": "address",
          "name": "owner",
          "type": "address"
        },
        {
          "indexed": true,
          "internalType": "address",
          "name": "operator",
          "type": "address"
        },
        {
          "indexed": false,
          "internalType": "bool",
          "name": "approved",
          "type": "bool"
        }
      ],
      "name": "ApprovalForAll",
      "type": "event"
    },
    {
      "anonymous": false,
      "inputs": [
        {
          "indexed": true,
          "internalType": "address",
          "name": "previousOwner",
          "type": "address"
        },
        {
          "indexed": true,
          "internalType": "address",
          "name": "newOwner",
          "type": "address"
        }
      ],
      "name": "OwnershipTransferred",
      "type": "event"
    },
    {
      "anonymous": false,
      "inputs": [
        {
          "indexed": true,
          "internalType": "address",
          "name": "from",
          "type": "address"
        },
        {
          "indexed": true,
          "internalType": "address",
          "name": "to",
          "type": "address"
        },
        {
          "indexed": true,
          "internalType": "uint256",
          "name": "tokenId",
          "type": "uint256"
        }
      ],
      "name": "Transfer",
      "type": "event"
    },
    {
      "inputs": [
        {
          "internalType": "address",
          "name": "to",
          "type": "address"
        },
        {
          "internalType": "uint256",
          "name": "tokenId",
          "type": "uint256"
        }
      ],
      "name": "approve",
      "outputs": [],
      "stateMutability": "nonpayable",
      "type": "function"
    },
    {
      "inputs": [
        {
          "internalType": "address",
          "name": "owner",
          "type": "address"
        }
      ],
      "name": "balanceOf",
      "outputs": [
        {
          "internalType": "uint256",
          "name": "",
          "type": "uint256"
        }
      ],
      "stateMutability": "view",
      "type": "function"
    },
    {
      "inputs": [
        {
          "internalType": "uint256",
          "name": "tokenId",
          "type": "uint256"
        }
      ],
      "name": "getApproved",
      "outputs": [
        {
          "internalType": "address",
          "name": "",
          "type": "address"
        }
      ],
      "stateMutability": "view",
      "type": "function"
    },
    {
      "inputs": [
        {
          "internalType": "address",
          "name": "owner",
          "type": "address"
        },
        {
          "internalType": "address",
          "name": "operator",
          "type": "address"
        }
      ],
      "name": "isApprovedForAll",
      "outputs": [
        {
          "internalType": "bool",
          "name": "",
          "type": "bool"
        }
      ],
      "stateMutability": "view",
      "type": "function"
    },
    {
      "inputs": [
        {
          "internalType": "string",
          "name": "tokenURI",
          "type": "string"
        },
        {
          "internalType": "string",
          "name": "team",
          "type": "string"
        }
      ],
      "name": "mint",
      "outputs": [
        {
          "internalType": "uint256",
          "name": "",
          "type": "uint256"
        }
      ],
      "stateMutability": "payable",
      "type": "function"
    },
    {
      "inputs": [],
      "name": "mintPrice",
      "outputs": [
        {
          "internalType": "uint256",
          "name": "",
          "type": "uint256"
        }
      ],
      "stateMutability": "view",
      "type": "function"
    },
    {
      "inputs": [],
      "name": "name",
      "outputs": [
        {
          "internalType": "string",
          "name": "",
          "type": "string"
        }
      ],
      "stateMutability": "view",
      "type": "function"
    },
    {
      "inputs": [],
      "name": "owner",
      "outputs": [
        {
          "internalType": "address",
          "name": "",
          "type": "address"
        }
      ],
      "stateMutability": "view",
      "type": "function"
    },
    {
      "inputs": [
        {
          "internalType": "uint256",
          "name": "tokenId",
          "type": "uint256"
        }
      ],
      "name": "ownerOf",
      "outputs": [
        {
          "internalType": "address",
          "name": "",
          "type": "address"
        }
      ],
      "stateMutability": "view",
      "type": "function"
    },
    {
      "inputs": [],
      "name": "renounceOwnership",
      "outputs": [],
      "stateMutability": "nonpayable",
      "type": "function"
    },
    {
      "inputs": [
        {
          "internalType": "address",
          "name": "from",
          "type": "address"
        },
        {
          "internalType": "address",
          "name": "to",
          "type": "address"
        },
        {
          "internalType": "uint256",
          "name": "tokenId",
          "type": "uint256"
        }
      ],
      "name": "safeTransferFrom",
      "outputs": [],
      "stateMutability": "nonpayable",
      "type": "function"
    },
    {
      "inputs": [
        {
          "internalType": "address",
          "name": "from",
          "type": "address"
        },
        {
          "internalType": "address",
          "name": "to",
          "type": "address"
        },
        {
          "internalType": "uint256",
          "name": "tokenId",
          "type": "uint256"
        },
        {
          "internalType": "bytes",
          "name": "data",
          "type": "bytes"
        }
      ],
      "name": "safeTransferFrom",
      "outputs": [],
      "stateMutability": "nonpayable",
      "type": "function"
    },
    {
      "inputs": [
        {
          "internalType": "address",
          "name": "operator",
          "type": "address"
        },
        {
          "internalType": "bool",
          "name": "approved",
          "type": "bool"
        }
      ],
      "name": "setApprovalForAll",
      "outputs": [],
      "stateMutability": "nonpayable",
      "type": "function"
    },
    {
      "inputs": [
        {
          "internalType": "bytes4",
          "name": "interfaceId",
          "type": "bytes4"
        }
      ],
      "name": "supportsInterface",
      "outputs": [
        {
          "internalType": "bool",
          "name": "",
          "type": "bool"
        }
      ],
      "stateMutability": "view",
      "type": "function"
    },
    {
      "inputs": [],
      "name": "symbol",
      "outputs": [
        {
          "internalType": "string",
          "name": "",
          "type": "string"
        }
      ],
      "stateMutability": "view",
      "type": "function"
    },
    {
      "inputs": [
        {
          "internalType": "string",
          "name": "",
          "type": "string"
        }
      ],
      "name": "teamBalances",
      "outputs": [
        {
          "internalType": "uint256",
          "name": "",
          "type": "uint256"
        }
      ],
      "stateMutability": "view",
      "type": "function"
    },
    {
      "inputs": [
        {
          "internalType": "uint256",
          "name": "tokenId",
          "type": "uint256"
        }
      ],
      "name": "tokenURI",
      "outputs": [
        {
          "internalType": "string",
          "name": "",
          "type": "string"
        }
      ],
      "stateMutability": "view",
      "type": "function"
    },
    {
      "inputs": [],
      "name": "totalSupply",
      "outputs": [
        {
          "internalType": "uint256",
          "name": "",
          "type": "uint256"
        }
      ],
      "stateMutability": "view",
      "type": "function"
    },
    {
      "inputs": [
        {
          "internalType": "address",
          "name": "from",
          "type": "address"
        },
        {
          "internalType": "address",
          "name": "to",
          "type": "address"
        },
        {
          "internalType": "uint256",
          "name": "tokenId",
          "type": "uint256"
        }
      ],
      "name": "transferFrom",
      "outputs": [],
      "stateMutability": "nonpayable",
      "type": "function"
    },
    {
      "inputs": [
        {
          "internalType": "address",
          "name": "newOwner",
          "type": "address"
        }
      ],
      "name": "transferOwnership",
      "outputs": [],
      "stateMutability": "nonpayable",
      "type": "function"
    },
    {
      "inputs": [],
      "name": "withdraw",
      "outputs": [],
      "stateMutability": "nonpayable",
      "type": "function"
    },
    {
      "inputs": [
        {
          "internalType": "string",
          "name": "team",
          "type": "string"
        }
      ],
      "name": "withdrawTeamFunds",
      "outputs": [],
      "stateMutability": "nonpayable",
      "type": "function"
    },
    {
      "stateMutability": "payable",
      "type": "receive"
    }
  ],
  "bytecode": "0x608060405266b1a2bc2ec500006009553480156200001c57600080fd5b506040518060400160405280600981526020017f576f726c642043757000000000000000000000000000000000000000000000008152506040518060400160405280600381526020017f574354000000000000000000000000000000000000000000000000000000000081525081600090816200009a91906200041d565b508060019081620000ac91906200041d565b505050620000cf620000c3620000d560201b60201c565b620000dd60201b60201c565b62000504565b600033905090565b6000600760009054906101000a900473ffffffffffffffffffffffffffffffffffffffff16905081600760006101000a81548173ffffffffffffffffffffffffffffffffffffffff021916908373ffffffffffffffffffffffffffffffffffffffff1602179055508173ffffffffffffffffffffffffffffffffffffffff168173ffffffffffffffffffffffffffffffffffffffff167f8be0079c531659141344cd1fd0a4f28419497f9722a3daafe3b4186f6b6457e060405160405180910390a35050565b600081519050919050565b7f4e487b7100000000000000000000000000000000000000000000000000000000600052604160045260246000fd5b7f4e487b7100000000000000000000000000000000000000000000000000000000600052602260045260246000fd5b600060028204905060018216806200022557607f821691505b6020821081036200023b576200023a620001dd565b5b50919050565b60008190508160005260206000209050919050565b60006020601f8301049050919050565b600082821b905092915050565b600060088302620002a57fffffffffffffffffffffffffffffffffffffffffffffffffffffffffffffffff8262000266565b620002b1868362000266565b95508019841693508086168417925050509392505050565b6000819050919050565b6000819050919050565b6000620002fe620002f8620002f284620002c9565b620002d3565b620002c9565b9050919050565b6000819050919050565b6200031a83620002dd565b62000332620003298262000305565b84845462000273565b825550505050565b600090565b620003496200033a565b620003568184846200030f565b505050565b5b818110156200037e57620003726000826200033f565b6001810190506200035c565b5050565b601f821115620003cd57620003978162000241565b620003a28462000256565b81016020851015620003b2578190505b620003ca620003c18562000256565b8301826200035b565b50505b505050565b600082821c905092915050565b6000620003f260001984600802620003d2565b1980831691505092915050565b60006200040d8383620003df565b9150826002028217905092915050565b6200042882620001a3565b67ffffffffffffffff811115620004445762000443620001ae565b5b6200045082546200020c565b6200045d82828562000382565b600060209050601f83116001811462000495576000841562000480578287015190505b6200048c8582620003ff565b865550620004fc565b601f198416620004a58662000241565b60005b82811015620004cf57848901518255600182019150602085019450602081019050620004a8565b86831015620004ef5784890151620004eb601f891682620003df565b8355505b6001600288020188555050505b505050505050565b6132cc80620005146000396000f3fe6080604052600436106101395760003560e01c80636817c76c116100ab57806395d89b411161006f57806395d89b4114610424578063a22cb4651461044f578063b88d4fde14610478578063c87b56dd146104a1578063e985e9c5146104de578063f2fde38b1461051b57610140565b80636817c76c1461034a57806370a0823114610375578063715018a6146103b25780638aa0fdad146103c95780638da5cb5b146103f957610140565b806318160ddd116100fd57806318160ddd1461025057806323b872dd1461027b57806326f9caba146102a45780633ccfd60b146102cd57806342842e0e146102e45780636352211e1461030d57610140565b806301ffc9a71461014557806306fdde0314610182578063081812fc146101ad578063095ea7b3146101ea57806309d49f6a1461021357610140565b3661014057005b600080fd5b34801561015157600080fd5b5061016c60048036038101906101679190611df9565b610544565b6040516101799190611e41565b60405180910390f35b34801561018e57600080fd5b50610197610626565b6040516101a49190611eec565b60405180910390f35b3480156101b957600080fd5b506101d460048036038101906101cf9190611f44565b6106b8565b6040516101e19190611fb2565b60405180910390f35b3480156101f657600080fd5b50610211600480360381019061020c9190611ff9565b6106fe565b005b34801561021f57600080fd5b5061023a6004803603810190610235919061216e565b610815565b60405161024791906121c6565b60405180910390f35b34801561025c57600080fd5b50610265610843565b60405161027291906121c6565b60405180910390f35b34801561028757600080fd5b506102a2600480360381019061029d91906121e1565b610854565b005b3480156102b057600080fd5b506102cb60048036038101906102c6919061216e565b6108b4565b005b3480156102d957600080fd5b506102e2610998565b005b3480156102f057600080fd5b5061030b600480360381019061030691906121e1565b6109f6565b005b34801561031957600080fd5b50610334600480360381019061032f9190611f44565b610a16565b6040516103419190611fb2565b60405180910390f35b34801561035657600080fd5b5061035f610ac7565b60405161036c91906121c6565b60405180910390f35b34801561038157600080fd5b5061039c60048036038101906103979190612234565b610acd565b6040516103a991906121c6565b60405180910390f35b3480156103be57600080fd5b506103c7610b84565b005b6103e360048036038101906103de9190612261565b610b98565b6040516103f091906121c6565b60405180910390f35b34801561040557600080fd5b5061040e610c4a565b60405161041b9190611fb2565b60405180910390f35b34801561043057600080fd5b50610439610c74565b6040516104469190611eec565b60405180910390f35b34801561045b57600080fd5b5061047660048036038101906104719190612305565b610d06565b005b34801561048457600080fd5b5061049f600480360381019061049a91906123e6565b610d1c565b005b3480156104ad57600080fd5b506104c860048036038101906104c39190611f44565b610d7e565b6040516104d59190611eec565b60405180910390f35b3480156104ea57600080fd5b5061050560048036038101906105009190612469565b610e90565b6040516105129190611e41565b60405180910390f35b34801561052757600080fd5b50610542600480360381019061053d9190612234565b610f24565b005b60007f80ac58cd000000000000000000000000000000000000000000000000000000007bffffffffffffffffffffffffffffffffffffffffffffffffffffffff1916827bffffffffffffffffffffffffffffffffffffffffffffffffffffffff1916148061060f57507f5b5e139f000000000000000000000000000000000000000000000000000000007bffffffffffffffffffffffffffffffffffffffffffffffffffffffff1916827bffffffffffffffffffffffffffffffffffffffffffffffffffffffff1916145b8061061f575061061e82610fa7565b5b9050919050565b606060008054610635906124d8565b80601f0160208091040260200160405190810160405280929190818152602001828054610661906124d8565b80156106ae5780601f10610683576101008083540402835291602001916106ae565b820191906000526020600020905b81548152906001019060200180831161069157829003601f168201915b5050505050905090565b60006106c382611011565b6004600083815260200190815260200160002060009054906101000a900473ffffffffffffffffffffffffffffffffffffffff169050919050565b600061070982610a16565b90508073ffffffffffffffffffffffffffffffffffffffff168373ffffffffffffffffffffffffffffffffffffffff1603610779576040517f08c379a00000000000000000000000000000000000000000000000000000000081526004016107709061257b565b60405180910390fd5b8073ffffffffffffffffffffffffffffffffffffffff1661079861105c565b73ffffffffffffffffffffffffffffffffffffffff1614806107c757506107c6816107c161105c565b610e90565b5b610806576040517f08c379a00000000000000000000000000000000000000000000000000000000081526004016107fd9061260d565b60405180910390fd5b6108108383611064565b505050565b600a818051602081018201805184825260208301602085012081835280955050505050506000915090505481565b600061084f600861111d565b905090565b61086561085f61105c565b8261112b565b6108a4576040517f08c379a000000000000000000000000000000000000000000000000000000000815260040161089b9061269f565b60405180910390fd5b6108af8383836111c0565b505050565b6108bc611426565b6000600a826040516108ce91906126fb565b908152602001604051809103902054905060008111610922576040517f08c379a00000000000000000000000000000000000000000000000000000000081526004016109199061275e565b60405180910390fd5b6000600a8360405161093491906126fb565b90815260200160405180910390208190555061094e610c4a565b73ffffffffffffffffffffffffffffffffffffffff166108fc829081150290604051600060405180830381858888f19350505050158015610993573d6000803e3d6000fd5b505050565b6109a0611426565b60004790506109ad610c4a565b73ffffffffffffffffffffffffffffffffffffffff166108fc829081150290604051600060405180830381858888f193505050501580156109f2573d6000803e3d6000fd5b5050565b610a1183838360405180602001604052806000815250610d1c565b505050565b6000806002600084815260200190815260200160002060009054906101000a900473ffffffffffffffffffffffffffffffffffffffff169050600073ffffffffffffffffffffffffffffffffffffffff168173ffffffffffffffffffffffffffffffffffffffff1603610abe576040517f08c379a0000000000000000000000000000000000000000000000000000000008152600401610ab5906127ca565b60405180910390fd5b80915050919050565b60095481565b60008073ffffffffffffffffffffffffffffffffffffffff168273ffffffffffffffffffffffffffffffffffffffff1603610b3d576040517f08c379a0000000000000000000000000000000000000000000000000000000008152600401610b349061285c565b60405180910390fd5b600360008373ffffffffffffffffffffffffffffffffffffffff1673ffffffffffffffffffffffffffffffffffffffff168152602001908152602001600020549050919050565b610b8c611426565b610b9660006114a4565b565b6000600954341015610bdf576040517f08c379a0000000000000000000000000000000000000000000000000000000008152600401610bd6906128c8565b60405180910390fd5b610be9600861156a565b6000610bf5600861111d565b9050610c013382611580565b610c0b8185611759565b34600a84604051610c1c91906126fb565b90815260200160405180910390206000828254610c399190612917565b925050819055508091505092915050565b6000600760009054906101000a900473ffffffffffffffffffffffffffffffffffffffff16905090565b606060018054610c83906124d8565b80601f0160208091040260200160405190810160405280929190818152602001828054610caf906124d8565b8015610cfc5780601f10610cd157610100808354040283529160200191610cfc565b820191906000526020600020905b815481529060010190602001808311610cdf57829003601f168201915b5050505050905090565b610d18610d1161105c565b83836117c6565b5050565b610d2d610d2761105c565b8361112b565b610d6c576040517f08c379a0000000000000000000000000000000000000000000000000000000008152600401610d639061269f565b60405180910390fd5b610d7884848484611932565b50505050565b6060610d8982611011565b6000600660008481526020019081526020016000208054610da9906124d8565b80601f0160208091040260200160405190810160405280929190818152602001828054610dd5906124d8565b8015610e225780601f10610df757610100808354040283529160200191610e22565b820191906000526020600020905b815481529060010190602001808311610e0557829003601f168201915b505050505090506000610e3361198e565b90506000815103610e48578192505050610e8b565b600082511115610e7d578082604051602001610e6592919061294b565b60405160208183030381529060405292505050610e8b565b610e86846119a5565b925050505b919050565b6000600560008473ffffffffffffffffffffffffffffffffffffffff1673ffffffffffffffffffffffffffffffffffffffff16815260200190815260200160002060008373ffffffffffffffffffffffffffffffffffffffff1673ffffffffffffffffffffffffffffffffffffffff16815260200190815260200160002060009054906101000a900460ff16905092915050565b610f2c611426565b600073ffffffffffffffffffffffffffffffffffffffff168173ffffffffffffffffffffffffffffffffffffffff1603610f9b576040517f08c379a0000000000000000000000000000000000000000000000000000000008152600401610f92906129e1565b60405180910390fd5b610fa4816114a4565b50565b60007f01ffc9a7000000000000000000000000000000000000000000000000000000007bffffffffffffffffffffffffffffffffffffffffffffffffffffffff1916827bffffffffffffffffffffffffffffffffffffffffffffffffffffffff1916149050919050565b61101a81611a0d565b611059576040517f08c379a0000000000000000000000000000000000000000000000000000000008152600401611050906127ca565b60405180910390fd5b50565b600033905090565b816004600083815260200190815260200160002060006101000a81548173ffffffffffffffffffffffffffffffffffffffff021916908373ffffffffffffffffffffffffffffffffffffffff160217905550808273ffffffffffffffffffffffffffffffffffffffff166110d783610a16565b73ffffffffffffffffffffffffffffffffffffffff167f8c5be1e5ebec7d5bd14f71427d1e84f3dd0314c0f7b2291e5b200ac8c7c3b92560405160405180910390a45050565b600081600001549050919050565b60008061113783610a16565b90508073ffffffffffffffffffffffffffffffffffffffff168473ffffffffffffffffffffffffffffffffffffffff16148061117957506111788185610e90565b5b806111b757508373ffffffffffffffffffffffffffffffffffffffff1661119f846106b8565b73ffffffffffffffffffffffffffffffffffffffff16145b91505092915050565b8273ffffffffffffffffffffffffffffffffffffffff166111e082610a16565b73ffffffffffffffffffffffffffffffffffffffff1614611236576040517f08c379a000000000000000000000000000000000000000000000000000000000815260040161122d90612a73565b60405180910390fd5b600073ffffffffffffffffffffffffffffffffffffffff168273ffffffffffffffffffffffffffffffffffffffff16036112a5576040517f08c379a000000000000000000000000000000000000000000000000000000000815260040161129c90612b05565b60405180910390fd5b6112b0838383611a79565b6112bb600082611064565b6001600360008573ffffffffffffffffffffffffffffffffffffffff1673ffffffffffffffffffffffffffffffffffffffff168152602001908152602001600020600082825461130b9190612b25565b925050819055506001600360008473ffffffffffffffffffffffffffffffffffffffff1673ffffffffffffffffffffffffffffffffffffffff16815260200190815260200160002060008282546113629190612917565b92505081905550816002600083815260200190815260200160002060006101000a81548173ffffffffffffffffffffffffffffffffffffffff021916908373ffffffffffffffffffffffffffffffffffffffff160217905550808273ffffffffffffffffffffffffffffffffffffffff168473ffffffffffffffffffffffffffffffffffffffff167fddf252ad1be2c89b69c2b068fc378daa952ba7f163c4a11628f55a4df523b3ef60405160405180910390a4611421838383611a7e565b505050565b61142e61105c565b73ffffffffffffffffffffffffffffffffffffffff1661144c610c4a565b73ffffffffffffffffffffffffffffffffffffffff16146114a2576040517f08c379a000000000000000000000000000000000000000000000000000000000815260040161149990612ba5565b60405180910390fd5b565b6000600760009054906101000a900473ffffffffffffffffffffffffffffffffffffffff16905081600760006101000a81548173ffffffffffffffffffffffffffffffffffffffff021916908373ffffffffffffffffffffffffffffffffffffffff1602179055508173ffffffffffffffffffffffffffffffffffffffff168173ffffffffffffffffffffffffffffffffffffffff167f8be0079c531659141344cd1fd0a4f28419497f9722a3daafe3b4186f6b6457e060405160405180910390a35050565b6001816000016000828254019250508190555050565b600073ffffffffffffffffffffffffffffffffffffffff168273ffffffffffffffffffffffffffffffffffffffff16036115ef576040517f08c379a00000000000000000000000000000000000000000000000000000000081526004016115e690612c11565b60405180910390fd5b6115f881611a0d565b15611638576040517f08c379a000000000000000000000000000000000000000000000000000000000815260040161162f90612c7d565b60405180910390fd5b61164460008383611a79565b6001600360008473ffffffffffffffffffffffffffffffffffffffff1673ffffffffffffffffffffffffffffffffffffffff16815260200190815260200160002060008282546116949190612917565b92505081905550816002600083815260200190815260200160002060006101000a81548173ffffffffffffffffffffffffffffffffffffffff021916908373ffffffffffffffffffffffffffffffffffffffff160217905550808273ffffffffffffffffffffffffffffffffffffffff16600073ffffffffffffffffffffffffffffffffffffffff167fddf252ad1be2c89b69c2b068fc378daa952ba7f163c4a11628f55a4df523b3ef60405160405180910390a461175560008383611a7e565b5050565b61176282611a0d565b6117a1576040517f08c379a000000000000000000000000000000000000000000000000000000000815260040161179890612d0f565b60405180910390fd5b806006600084815260200190815260200160002090816117c19190612edb565b505050565b8173ffffffffffffffffffffffffffffffffffffffff168373ffffffffffffffffffffffffffffffffffffffff1603611834576040517f08c379a000000000000000000000000000000000000000000000000000000000815260040161182b90612ff9565b60405180910390fd5b80600560008573ffffffffffffffffffffffffffffffffffffffff1673ffffffffffffffffffffffffffffffffffffffff16815260200190815260200160002060008473ffffffffffffffffffffffffffffffffffffffff1673ffffffffffffffffffffffffffffffffffffffff16815260200190815260200160002060006101000a81548160ff0219169083151502179055508173ffffffffffffffffffffffffffffffffffffffff168373ffffffffffffffffffffffffffffffffffffffff167f17307eab39ab6107e8899845ad3d59bd9653f200f220920489ca2b5937696c31836040516119259190611e41565b60405180910390a3505050565b61193d8484846111c0565b61194984848484611a83565b611988576040517f08c379a000000000000000000000000000000000000000000000000000000000815260040161197f9061308b565b60405180910390fd5b50505050565b606060405180602001604052806000815250905090565b60606119b082611011565b60006119ba61198e565b905060008151116119da5760405180602001604052806000815250611a05565b806119e484611c0a565b6040516020016119f592919061294b565b6040516020818303038152906040525b915050919050565b60008073ffffffffffffffffffffffffffffffffffffffff166002600084815260200190815260200160002060009054906101000a900473ffffffffffffffffffffffffffffffffffffffff1673ffffffffffffffffffffffffffffffffffffffff1614159050919050565b505050565b505050565b6000611aa48473ffffffffffffffffffffffffffffffffffffffff16611d6a565b15611bfd578373ffffffffffffffffffffffffffffffffffffffff1663150b7a02611acd61105c565b8786866040518563ffffffff1660e01b8152600401611aef9493929190613100565b6020604051808303816000875af1925050508015611b2b57506040513d601f19601f82011682018060405250810190611b289190613161565b60015b611bad573d8060008114611b5b576040519150601f19603f3d011682016040523d82523d6000602084013e611b60565b606091505b506000815103611ba5576040517f08c379a0000000000000000000000000000000000000000000000000000000008152600401611b9c9061308b565b60405180910390fd5b805181602001fd5b63150b7a0260e01b7bffffffffffffffffffffffffffffffffffffffffffffffffffffffff1916817bffffffffffffffffffffffffffffffffffffffffffffffffffffffff191614915050611c02565b600190505b949350505050565b606060008203611c51576040518060400160405280600181526020017f30000000000000000000000000000000000000000000000000000000000000008152509050611d65565b600082905060005b60008214611c83578080611c6c9061318e565b915050600a82611c7c9190613205565b9150611c59565b60008167ffffffffffffffff811115611c9f57611c9e612043565b5b6040519080825280601f01601f191660200182016040528015611cd15781602001600182028036833780820191505090505b5090505b60008514611d5e57600182611cea9190612b25565b9150600a85611cf99190613236565b6030611d059190612917565b60f81b818381518110611d1b57611d1a613267565b5b60200101907effffffffffffffffffffffffffffffffffffffffffffffffffffffffffffff1916908160001a905350600a85611d579190613205565b9450611cd5565b8093505050505b919050565b6000808273ffffffffffffffffffffffffffffffffffffffff163b119050919050565b6000604051905090565b600080fd5b600080fd5b60007fffffffff0000000000000000000000000000000000000000000000000000000082169050919050565b611dd681611da1565b8114611de157600080fd5b50565b600081359050611df381611dcd565b92915050565b600060208284031215611e0f57611e0e611d97565b5b6000611e1d84828501611de4565b91505092915050565b60008115159050919050565b611e3b81611e26565b82525050565b6000602082019050611e566000830184611e32565b92915050565b600081519050919050565b600082825260208201905092915050565b60005b83811015611e96578082015181840152602081019050611e7b565b60008484015250505050565b6000601f19601f8301169050919050565b6000611ebe82611e5c565b611ec88185611e67565b9350611ed8818560208601611e78565b611ee181611ea2565b840191505092915050565b60006020820190508181036000830152611f068184611eb3565b905092915050565b6000819050919050565b611f2181611f0e565b8114611f2c57600080fd5b50565b600081359050611f3e81611f18565b92915050565b600060208284031215611f5a57611f59611d97565b5b6000611f6884828501611f2f565b91505092915050565b600073ffffffffffffffffffffffffffffffffffffffff82169050919050565b6000611f9c82611f71565b9050919050565b611fac81611f91565b82525050565b6000602082019050611fc76000830184611fa3565b92915050565b611fd681611f91565b8114611fe157600080fd5b50565b600081359050611ff381611fcd565b92915050565b600080604083850312156120105761200f611d97565b5b600061201e85828601611fe4565b925050602061202f85828601611f2f565b9150509250929050565b600080fd5b600080fd5b7f4e487b7100000000000000000000000000000000000000000000000000000000600052604160045260246000fd5b61207b82611ea2565b810181811067ffffffffffffffff8211171561209a57612099612043565b5b80604052505050565b60006120ad611d8d565b90506120b98282612072565b919050565b600067ffffffffffffffff8211156120d9576120d8612043565b5b6120e282611ea2565b9050602081019050919050565b82818337600083830152505050565b600061211161210c846120be565b6120a3565b90508281526020810184848401111561212d5761212c61203e565b5b6121388482856120ef565b509392505050565b600082601f83011261215557612154612039565b5b81356121658482602086016120fe565b91505092915050565b60006020828403121561218457612183611d97565b5b600082013567ffffffffffffffff8111156121a2576121a1611d9c565b5b6121ae84828501612140565b91505092915050565b6121c081611f0e565b82525050565b60006020820190506121db60008301846121b7565b92915050565b6000806000606084860312156121fa576121f9611d97565b5b600061220886828701611fe4565b935050602061221986828701611fe4565b925050604061222a86828701611f2f565b9150509250925092565b60006020828403121561224a57612249611d97565b5b600061225884828501611fe4565b91505092915050565b6000806040838503121561227857612277611d97565b5b600083013567ffffffffffffffff81111561229657612295611d9c565b5b6122a285828601612140565b925050602083013567ffffffffffffffff8111156122c3576122c2611d9c565b5b6122cf85828601612140565b9150509250929050565b6122e281611e26565b81146122ed57600080fd5b50565b6000813590506122ff816122d9565b92915050565b6000806040838503121561231c5761231b611d97565b5b600061232a85828601611fe4565b925050602061233b858286016122f0565b9150509250929050565b600067ffffffffffffffff8211156123605761235f612043565b5b61236982611ea2565b9050602081019050919050565b600061238961238484612345565b6120a3565b9050828152602081018484840111156123a5576123a461203e565b5b6123b08482856120ef565b509392505050565b600082601f8301126123cd576123cc612039565b5b81356123dd848260208601612376565b91505092915050565b60008060008060808587031215612400576123ff611d97565b5b600061240e87828801611fe4565b945050602061241f87828801611fe4565b935050604061243087828801611f2f565b925050606085013567ffffffffffffffff81111561245157612450611d9c565b5b61245d878288016123b8565b91505092959194509250565b600080604083850312156124805761247f611d97565b5b600061248e85828601611fe4565b925050602061249f85828601611fe4565b9150509250929050565b7f4e487b7100000000000000000000000000000000000000000000000000000000600052602260045260246000fd5b600060028204905060018216806124f057607f821691505b602082108103612503576125026124a9565b5b50919050565b7f4552433732313a20617070726f76616c20746f2063757272656e74206f776e6560008201527f7200000000000000000000000000000000000000000000000000000000000000602082015250565b6000612565602183611e67565b915061257082612509565b604082019050919050565b6000602082019050818103600083015261259481612558565b9050919050565b7f4552433732313a20617070726f76652063616c6c6572206973206e6f7420746f60008201527f6b656e206f776e6572206e6f7220617070726f76656420666f7220616c6c0000602082015250565b60006125f7603e83611e67565b91506126028261259b565b604082019050919050565b60006020820190508181036000830152612626816125ea565b9050919050565b7f4552433732313a2063616c6c6572206973206e6f7420746f6b656e206f776e6560008201527f72206e6f7220617070726f766564000000000000000000000000000000000000602082015250565b6000612689602e83611e67565b91506126948261262d565b604082019050919050565b600060208201905081810360008301526126b88161267c565b9050919050565b600081905092915050565b60006126d582611e5c565b6126df81856126bf565b93506126ef818560208601611e78565b80840191505092915050565b600061270782846126ca565b915081905092915050565b7f4e6f2066756e647320617661696c61626c6520666f722074686973207465616d600082015250565b6000612748602083611e67565b915061275382612712565b602082019050919050565b600060208201905081810360008301526127778161273b565b9050919050565b7f4552433732313a20696e76616c696420746f6b656e2049440000000000000000600082015250565b60006127b4601883611e67565b91506127bf8261277e565b602082019050919050565b600060208201905081810360008301526127e3816127a7565b9050919050565b7f4552433732313a2061646472657373207a65726f206973206e6f74206120766160008201527f6c6964206f776e65720000000000000000000000000000000000000000000000602082015250565b6000612846602983611e67565b9150612851826127ea565b604082019050919050565b6000602082019050818103600083015261287581612839565b9050919050565b7f496e73756666696369656e742066756e647320746f206d696e74204e46540000600082015250565b60006128b2601e83611e67565b91506128bd8261287c565b602082019050919050565b600060208201905081810360008301526128e1816128a5565b9050919050565b7f4e487b7100000000000000000000000000000000000000000000000000000000600052601160045260246000fd5b600061292282611f0e565b915061292d83611f0e565b9250828201905080821115612945576129446128e8565b5b92915050565b600061295782856126ca565b915061296382846126ca565b91508190509392505050565b7f4f776e61626c653a206e6577206f776e657220697320746865207a65726f206160008201527f6464726573730000000000000000000000000000000000000000000000000000602082015250565b60006129cb602683611e67565b91506129d68261296f565b604082019050919050565b600060208201905081810360008301526129fa816129be565b9050919050565b7f4552433732313a207472616e736665722066726f6d20696e636f72726563742060008201527f6f776e6572000000000000000000000000000000000000000000000000000000602082015250565b6000612a5d602583611e67565b9150612a6882612a01565b604082019050919050565b60006020820190508181036000830152612a8c81612a50565b9050919050565b7f4552433732313a207472616e7366657220746f20746865207a65726f2061646460008201527f7265737300000000000000000000000000000000000000000000000000000000602082015250565b6000612aef602483611e67565b9150612afa82612a93565b604082019050919050565b60006020820190508181036000830152612b1e81612ae2565b9050919050565b6000612b3082611f0e565b9150612b3b83611f0e565b9250828203905081811115612b5357612b526128e8565b5b92915050565b7f4f776e61626c653a2063616c6c6572206973206e6f7420746865206f776e6572600082015250565b6000612b8f602083611e67565b9150612b9a82612b59565b602082019050919050565b60006020820190508181036000830152612bbe81612b82565b9050919050565b7f4552433732313a206d696e7420746f20746865207a65726f2061646472657373600082015250565b6000612bfb602083611e67565b9150612c0682612bc5565b602082019050919050565b60006020820190508181036000830152612c2a81612bee565b9050919050565b7f4552433732313a20746f6b656e20616c7265616479206d696e74656400000000600082015250565b6000612c67601c83611e67565b9150612c7282612c31565b602082019050919050565b60006020820190508181036000830152612c9681612c5a565b9050919050565b7f45524337323155524953746f726167653a2055524920736574206f66206e6f6e60008201527f6578697374656e7420746f6b656e000000000000000000000000000000000000602082015250565b6000612cf9602e83611e67565b9150612d0482612c9d565b604082019050919050565b60006020820190508181036000830152612d2881612cec565b9050919050565b60008190508160005260206000209050919050565b60006020601f8301049050919050565b600082821b905092915050565b600060088302612d917fffffffffffffffffffffffffffffffffffffffffffffffffffffffffffffffff82612d54565b612d9b8683612d54565b95508019841693508086168417925050509392505050565b6000819050919050565b6000612dd8612dd3612dce84611f0e565b612db3565b611f0e565b9050919050565b6000819050919050565b612df283612dbd565b612e06612dfe82612ddf565b848454612d61565b825550505050565b600090565b612e1b612e0e565b612e26818484612de9565b505050565b5b81811015612e4a57612e3f600082612e13565b600181019050612e2c565b5050565b601f821115612e8f57612e6081612d2f565b612e6984612d44565b81016020851015612e78578190505b612e8c612e8485612d44565b830182612e2b565b50505b505050565b600082821c905092915050565b6000612eb260001984600802612e94565b1980831691505092915050565b6000612ecb8383612ea1565b9150826002028217905092915050565b612ee482611e5c565b67ffffffffffffffff811115612efd57612efc612043565b5b612f0782546124d8565b612f12828285612e4e565b600060209050601f831160018114612f455760008415612f33578287015190505b612f3d8582612ebf565b865550612fa5565b601f198416612f5386612d2f565b60005b82811015612f7b57848901518255600182019150602085019450602081019050612f56565b86831015612f985784890151612f94601f891682612ea1565b8355505b6001600288020188555050505b505050505050565b7f4552433732313a20617070726f766520746f2063616c6c657200000000000000600082015250565b6000612fe3601983611e67565b9150612fee82612fad565b602082019050919050565b6000602082019050818103600083015261301281612fd6565b9050919050565b7f4552433732313a207472616e7366657220746f206e6f6e20455243373231526560008201527f63656976657220696d706c656d656e7465720000000000000000000000000000602082015250565b6000613075603283611e67565b915061308082613019565b604082019050919050565b600060208201905081810360008301526130a481613068565b9050919050565b600081519050919050565b600082825260208201905092915050565b60006130d2826130ab565b6130dc81856130b6565b93506130ec818560208601611e78565b6130f581611ea2565b840191505092915050565b60006080820190506131156000830187611fa3565b6131226020830186611fa3565b61312f60408301856121b7565b818103606083015261314181846130c7565b905095945050505050565b60008151905061315b81611dcd565b92915050565b60006020828403121561317757613176611d97565b5b60006131858482850161314c565b91505092915050565b600061319982611f0e565b91507fffffffffffffffffffffffffffffffffffffffffffffffffffffffffffffffff82036131cb576131ca6128e8565b5b600182019050919050565b7f4e487b7100000000000000000000000000000000000000000000000000000000600052601260045260246000fd5b600061321082611f0e565b915061321b83611f0e565b92508261322b5761322a6131d6565b5b828204905092915050565b600061324182611f0e565b915061324c83611f0e565b92508261325c5761325b6131d6565b5b828206905092915050565b7f4e487b7100000000000000000000000000000000000000000000000000000000600052603260045260246000fdfea26469706673582212203deebab4bdc64805caee89db2b43cfebb918c9edf57f09df500bd94c09957c5e64736f6c63430008110033",
  "linkReferences": {},
  "deployedLinkReferences": {}
}